{"abi":[{"type":"constructor","inputs":[],"stateMutability":"nonpayable"},{"type":"function","name":"announceWinner","inputs":[],"outputs":[],"stateMutability":"nonpayable"},{"type":"function","name":"castVote","inputs":[{"name":"_candidateId","type":"uint256","internalType":"uint256"}],"outputs":[],"stateMutability":"nonpayable"},{"type":"function","name":"endTime","inputs":[],"outputs":[{"name":"","type":"uint256","internalType":"uint256"}],"stateMutability":"view"},{"type":"function","name":"getVoteCount","inputs":[{"name":"_id","type":"uint256","internalType":"uint256"}],"outputs":[{"name":"","type":"uint256","internalType":"uint256"}],"stateMutability":"view"},{"type":"function","name":"getVotingStatus","inputs":[],"outputs":[{"name":"","type":"uint8","internalType":"enum Vote.VotingStatus"}],"stateMutability":"view"},{"type":"function","name":"isCandidateRegistered","inputs":[{"name":"","type":"address","internalType":"address"}],"outputs":[{"name":"","type":"bool","internalType":"bool"}],"stateMutability":"view"},{"type":"function","name":"isTie","inputs":[],"outputs":[{"name":"","type":"bool","internalType":"bool"}],"stateMutability":"view"},{"type":"function","name":"isVoterRegistered","inputs":[{"name":"","type":"address","internalType":"address"}],"outputs":[{"name":"","type":"bool","internalType":"bool"}],"stateMutability":"view"},{"type":"function","name":"nextCandidateId","inputs":[],"outputs":[{"name":"","type":"uint256","internalType":"uint256"}],"stateMutability":"view"},{"type":"function","name":"owner","inputs":[],"outputs":[{"name":"","type":"address","internalType":"address"}],"stateMutability":"view"},{"type":"function","name":"pauseVoting","inputs":[],"outputs":[],"stateMutability":"nonpayable"},{"type":"function","name":"paused","inputs":[],"outputs":[{"name":"","type":"bool","internalType":"bool"}],"stateMutability":"view"},{"type":"function","name":"registerCandidate","inputs":[{"name":"_candidate","type":"address","internalType":"address"},{"name":"_metadataCid","type":"string","internalType":"string"}],"outputs":[],"stateMutability":"nonpayable"},{"type":"function","name":"registerVoter","inputs":[{"name":"_name","type":"string","internalType":"string"},{"name":"_age","type":"uint256","internalType":"uint256"},{"name":"_gender","type":"uint8","internalType":"enum Vote.Gender"}],"outputs":[],"stateMutability":"nonpayable"},{"type":"function","name":"renounceOwnership","inputs":[],"outputs":[],"stateMutability":"nonpayable"},{"type":"function","name":"resumeVoting","inputs":[],"outputs":[],"stateMutability":"nonpayable"},{"type":"function","name":"setVotingPeriod","inputs":[{"name":"_startOffset","type":"uint256","internalType":"uint256"},{"name":"_duration","type":"uint256","internalType":"uint256"}],"outputs":[],"stateMutability":"nonpayable"},{"type":"function","name":"startTime","inputs":[],"outputs":[{"name":"","type":"uint256","internalType":"uint256"}],"stateMutability":"view"},{"type":"function","name":"transferOwnership","inputs":[{"name":"newOwner","type":"address","internalType":"address"}],"outputs":[],"stateMutability":"nonpayable"},{"type":"function","name":"winner","inputs":[],"outputs":[{"name":"","type":"address","internalType":"address"}],"stateMutability":"view"},{"type":"function","name":"winnerDeclared","inputs":[],"outputs":[{"name":"","type":"bool","internalType":"bool"}],"stateMutability":"view"},{"type":"function","name":"winningCandidateId","inputs":[],"outputs":[{"name":"","type":"uint256","internalType":"uint256"}],"stateMutability":"view"},{"type":"event","name":"CandidateRegistered","inputs":[{"name":"candidateId","type":"uint256","indexed":true,"internalType":"uint256"},{"name":"candidateAddress","type":"address","indexed":true,"internalType":"address"},{"name":"metadataCid","type":"string","indexed":false,"internalType":"string"}],"anonymous":false},{"type":"event","name":"OwnershipTransferred","inputs":[{"name":"previousOwner","type":"address","indexed":true,"internalType":"address"},{"name":"newOwner","type":"address","indexed":true,"internalType":"address"}],"anonymous":false},{"type":"event","name":"Paused","inputs":[{"name":"account","type":"address","indexed":false,"internalType":"address"}],"anonymous":false},{"type":"event","name":"Unpaused","inputs":[{"name":"account","type":"address","indexed":false,"internalType":"address"}],"anonymous":false},{"type":"event","name":"VoteCast","inputs":[{"name":"voter","type":"address","indexed":true,"internalType":"address"},{"name":"candidateId","type":"uint256","indexed":true,"internalType":"uint256"}],"anonymous":false},{"type":"event","name":"VoterRegistered","inputs":[{"name":"voter","type":"address","indexed":true,"internalType":"address"},{"name":"name","type":"string","indexed":false,"internalType":"string"},{"name":"age","type":"uint256","indexed":false,"internalType":"uint256"},{"name":"gender","type":"uint8","indexed":false,"internalType":"enum Vote.Gender"}],"anonymous":false},{"type":"event","name":"VotingPeriodSet","inputs":[{"name":"startTime","type":"uint256","indexed":false,"internalType":"uint256"},{"name":"endTime","type":"uint256","indexed":false,"internalType":"uint256"}],"anonymous":false},{"type":"event","name":"WinnerAnnounced","inputs":[{"name":"candidateId","type":"uint256","indexed":false,"internalType":"uint256"},{"name":"winner","type":"address","indexed":false,"internalType":"address"},{"name":"isTie","type":"bool","indexed":false,"internalType":"bool"}],"anonymous":false},{"type":"error","name":"AlreadyRegistered","inputs":[]},{"type":"error","name":"AlreadyVoted","inputs":[]},{"type":"error","name":"EnforcedPause","inputs":[]},{"type":"error","name":"ExpectedPause","inputs":[]},{"type":"error","name":"InvalidAge","inputs":[]},{"type":"error","name":"InvalidCandidate","inputs":[]},{"type":"error","name":"NoCandidates","inputs":[]},{"type":"error","name":"NotRegistered","inputs":[]},{"type":"error","name":"OwnableInvalidOwner","inputs":[{"name":"owner","type":"address","internalType":"address"}]},{"type":"error","name":"OwnableUnauthorizedAccount","inputs":[{"name":"account","type":"address","internalType":"address"}]},{"type":"error","name":"ReentrancyGuardReentrantCall","inputs":[]},{"type":"error","name":"VotingAlreadyScheduled","inputs":[]},{"type":"error","name":"VotingNotActive","inputs":[]},{"type":"error","name":"VotingNotEnded","inputs":[]},{"type":"error","name":"WinnerAlreadyDeclared","inputs":[]}],"bytecode":{"object":"0x608060405234801561000f575f5ffd5b50335f73ffffffffffffffffffffffffffffffffffffffff168173ffffffffffffffffffffffffffffffffffffffff1603610081575f6040517f1e4fbdf700000000000000000000000000000000000000000000000000000000815260040161007891906101ec565b60405180910390fd5b610090816100ba60201b60201c565b5060016100af6100a461017b60201b60201c565b6101a460201b60201c565b5f0181905550610205565b5f5f5f9054906101000a900473ffffffffffffffffffffffffffffffffffffffff169050815f5f6101000a81548173ffffffffffffffffffffffffffffffffffffffff021916908373ffffffffffffffffffffffffffffffffffffffff1602179055508173ffffffffffffffffffffffffffffffffffffffff168173ffffffffffffffffffffffffffffffffffffffff167f8be0079c531659141344cd1fd0a4f28419497f9722a3daafe3b4186f6b6457e060405160405180910390a35050565b5f7f9b779b17422d0df92223018b32b4d1fa46e071723d6817e2486d003becc55f005f1b905090565b5f819050919050565b5f73ffffffffffffffffffffffffffffffffffffffff82169050919050565b5f6101d6826101ad565b9050919050565b6101e6816101cc565b82525050565b5f6020820190506101ff5f8301846101dd565b92915050565b611dd2806102125f395ff3fe608060405234801561000f575f5ffd5b5060043610610140575f3560e01c8063a15a36c7116100b6578063dfbf53ae1161007a578063dfbf53ae146102f2578063eb2119db14610310578063f1ecdc5814610340578063f2fde38b14610370578063f3cdcd1e1461038c578063ff2d48121461039657610140565b8063a15a36c71461024e578063b0d30d2f1461026a578063b1e2514814610286578063b2c2f2e8146102a4578063d16ff4c8146102d457610140565b80635c975abb116101085780635c975abb146101c4578063715018a6146101e257806378e97925146101ec5780637afdf93e1461020a57806381ba732f146102145780638da5cb5b1461023057610140565b80631eb85538146101445780632d8cd096146101625780633197cbb61461016c5780633eb76b9c1461018a578063581c281c146101a6575b5f5ffd5b61014c6103b4565b60405161015991906114bc565b60405180910390f35b61016a6103ba565b005b61017461063f565b60405161018191906114bc565b60405180910390f35b6101a4600480360381019061019f9190611507565b610645565b005b6101ae610858565b6040516101bb91906115a5565b60405180910390f35b6101cc610888565b6040516101d991906115d8565b60405180910390f35b6101ea61089d565b005b6101f46108b0565b60405161020191906114bc565b60405180910390f35b6102126108b6565b005b61022e60048036038101906102299190611675565b6108c8565b005b610238610b7c565b6040516102459190611725565b60405180910390f35b6102686004803603810190610263919061173e565b610ba3565b005b610284600480360381019061027f91906117a6565b610ccd565b005b61028e610fa8565b60405161029b91906115d8565b60405180910390f35b6102be60048036038101906102b99190611507565b610fbb565b6040516102cb91906114bc565b60405180910390f35b6102dc61101e565b6040516102e991906114bc565b60405180910390f35b6102fa611024565b6040516103079190611725565b60405180910390f35b61032a60048036038101906103259190611803565b611049565b60405161033791906115d8565b60405180910390f35b61035a60048036038101906103559190611803565b611066565b60405161036791906115d8565b60405180910390f35b61038a60048036038101906103859190611803565b611083565b005b610394611107565b005b61039e611119565b6040516103ab91906115d8565b60405180910390f35b60045481565b6103c261112c565b600560149054906101000a900460ff1615610409576040517fe682345e00000000000000000000000000000000000000000000000000000000815260040160405180910390fd5b6002544211610444576040517f7f8617a200000000000000000000000000000000000000000000000000000000815260040160405180910390fd5b5f5f5f5f600190505b60035481116104bd575f60065f8381526020019081526020015f206002015490508481111561048557809450819350600192506104a9565b848114801561049457505f8114155b156104a85782806104a49061185b565b9350505b5b5080806104b59061185b565b91505061044d565b506001600560146101000a81548160ff0219169083151502179055505f8314806104e75750600181115b15610553576001600560156101000a81548160ff0219169083151502179055505f60055f6101000a81548173ffffffffffffffffffffffffffffffffffffffff021916908373ffffffffffffffffffffffffffffffffffffffff1602179055505f6004819055506105cd565b60065f8381526020019081526020015f205f015f9054906101000a900473ffffffffffffffffffffffffffffffffffffffff1660055f6101000a81548173ffffffffffffffffffffffffffffffffffffffff021916908373ffffffffffffffffffffffffffffffffffffffff160217905550816004819055505b7f580891fff3849c96845daf2b68ea56a4150c61182ce97ab9c92e81ff3db57af960045460055f9054906101000a900473ffffffffffffffffffffffffffffffffffffffff16600560159054906101000a900460ff16604051610632939291906118a2565b60405180910390a1505050565b60025481565b61064d6111b3565b6106556111f4565b61065d611216565b610693576040517f9b8cc47500000000000000000000000000000000000000000000000000000000815260040160405180910390fd5b60085f3373ffffffffffffffffffffffffffffffffffffffff1673ffffffffffffffffffffffffffffffffffffffff1681526020019081526020015f205f9054906101000a900460ff16610713576040517faba4733900000000000000000000000000000000000000000000000000000000815260040160405180910390fd5b5f811480610722575060035481115b15610759576040517fe66ea08f00000000000000000000000000000000000000000000000000000000815260040160405180910390fd5b5f60095f3373ffffffffffffffffffffffffffffffffffffffff1673ffffffffffffffffffffffffffffffffffffffff1681526020019081526020015f2090505f8160030154146107d6576040517f7c9a1cf900000000000000000000000000000000000000000000000000000000815260040160405180910390fd5b81816003018190555060065f8381526020019081526020015f206002015f8154809291906108039061185b565b9190505550813373ffffffffffffffffffffffffffffffffffffffff167fa36cc2bebb74db33e9f88110a07ef56e1b31b24b4c4f51b54b1664266e29f45b60405160405180910390a350610855611230565b50565b5f5f6001540361086a575f9050610885565b610872611216565b156108805760019050610885565b600290505b90565b5f5f60149054906101000a900460ff16905090565b6108a561112c565b6108ae5f61124a565b565b60015481565b6108be61112c565b6108c661130b565b565b60085f3373ffffffffffffffffffffffffffffffffffffffff1673ffffffffffffffffffffffffffffffffffffffff1681526020019081526020015f205f9054906101000a900460ff1615610949576040517f3a81d6fc00000000000000000000000000000000000000000000000000000000815260040160405180910390fd5b6012821015610984576040517f4530cb7000000000000000000000000000000000000000000000000000000000815260040160405180910390fd5b5f84849050036109c0576040517faba4733900000000000000000000000000000000000000000000000000000000815260040160405180910390fd5b604051806080016040528085858080601f0160208091040260200160405190810160405280939291908181526020018383808284375f81840152601f19601f820116905080830192505050505050508152602001838152602001826003811115610a2d57610a2c611532565b5b81526020015f81525060095f3373ffffffffffffffffffffffffffffffffffffffff1673ffffffffffffffffffffffffffffffffffffffff1681526020019081526020015f205f820151815f019081610a869190611b0b565b50602082015181600101556040820151816002015f6101000a81548160ff02191690836003811115610abb57610aba611532565b5b021790555060608201518160030155905050600160085f3373ffffffffffffffffffffffffffffffffffffffff1673ffffffffffffffffffffffffffffffffffffffff1681526020019081526020015f205f6101000a81548160ff0219169083151502179055503373ffffffffffffffffffffffffffffffffffffffff167fc17ff773d5edb2672723f40088e67b00d07451c61d44747483e8947148dfe6f585858585604051610b6e9493929190611c7a565b60405180910390a250505050565b5f5f5f9054906101000a900473ffffffffffffffffffffffffffffffffffffffff16905090565b610bab61112c565b5f60035403610be6576040517fe504190400000000000000000000000000000000000000000000000000000000815260040160405180910390fd5b5f60015414610c21576040517f3ec3e98700000000000000000000000000000000000000000000000000000000815260040160405180910390fd5b610e10811015610c66576040517f08c379a0000000000000000000000000000000000000000000000000000000008152600401610c5d90611d02565b60405180910390fd5b8142610c729190611d20565b60018190555080600154610c869190611d20565b6002819055507f7e3f7f0708a84de9203036abaa450dccc85ad5ff52f78c170f3edb55cf5e8828600154600254604051610cc1929190611d53565b60405180910390a15050565b610cd561112c565b5f73ffffffffffffffffffffffffffffffffffffffff168373ffffffffffffffffffffffffffffffffffffffff1603610d3a576040517fe66ea08f00000000000000000000000000000000000000000000000000000000815260040160405180910390fd5b60075f8473ffffffffffffffffffffffffffffffffffffffff1673ffffffffffffffffffffffffffffffffffffffff1681526020019081526020015f205f9054906101000a900460ff1615610dbb576040517f3a81d6fc00000000000000000000000000000000000000000000000000000000815260040160405180910390fd5b5f60015414610df6576040517f3ec3e98700000000000000000000000000000000000000000000000000000000815260040160405180910390fd5b60035f815480929190610e089061185b565b919050555060405180606001604052808473ffffffffffffffffffffffffffffffffffffffff16815260200183838080601f0160208091040260200160405190810160405280939291908181526020018383808284375f81840152601f19601f8201169050808301925050505050505081526020015f81525060065f60035481526020019081526020015f205f820151815f015f6101000a81548173ffffffffffffffffffffffffffffffffffffffff021916908373ffffffffffffffffffffffffffffffffffffffff1602179055506020820151816001019081610eed9190611b0b565b5060408201518160020155905050600160075f8573ffffffffffffffffffffffffffffffffffffffff1673ffffffffffffffffffffffffffffffffffffffff1681526020019081526020015f205f6101000a81548160ff0219169083151502179055508273ffffffffffffffffffffffffffffffffffffffff166003547f9d578c41b8bdec65a49d33c116348eab36fda5bd5b8d9ecec2cf54051de8cd9f8484604051610f9b929190611d7a565b60405180910390a3505050565b600560159054906101000a900460ff1681565b5f5f821480610fcb575060035482115b15611002576040517fe66ea08f00000000000000000000000000000000000000000000000000000000815260040160405180910390fd5b60065f8381526020019081526020015f20600201549050919050565b60035481565b60055f9054906101000a900473ffffffffffffffffffffffffffffffffffffffff1681565b6008602052805f5260405f205f915054906101000a900460ff1681565b6007602052805f5260405f205f915054906101000a900460ff1681565b61108b61112c565b5f73ffffffffffffffffffffffffffffffffffffffff168173ffffffffffffffffffffffffffffffffffffffff16036110fb575f6040517f1e4fbdf70000000000000000000000000000000000000000000000000000000081526004016110f29190611725565b60405180910390fd5b6111048161124a565b50565b61110f61112c565b61111761136c565b565b600560149054906101000a900460ff1681565b6111346113ce565b73ffffffffffffffffffffffffffffffffffffffff16611152610b7c565b73ffffffffffffffffffffffffffffffffffffffff16146111b1576111756113ce565b6040517f118cdaa70000000000000000000000000000000000000000000000000000000081526004016111a89190611725565b60405180910390fd5b565b6111bb610888565b156111f2576040517fd93c066500000000000000000000000000000000000000000000000000000000815260040160405180910390fd5b565b6111fc6113d5565b600261120e611209611416565b61143f565b5f0181905550565b5f600154421015801561122b57506002544211155b905090565b600161124261123d611416565b61143f565b5f0181905550565b5f5f5f9054906101000a900473ffffffffffffffffffffffffffffffffffffffff169050815f5f6101000a81548173ffffffffffffffffffffffffffffffffffffffff021916908373ffffffffffffffffffffffffffffffffffffffff1602179055508173ffffffffffffffffffffffffffffffffffffffff168173ffffffffffffffffffffffffffffffffffffffff167f8be0079c531659141344cd1fd0a4f28419497f9722a3daafe3b4186f6b6457e060405160405180910390a35050565b611313611448565b5f5f60146101000a81548160ff0219169083151502179055507f5db9ee0a495bf2e6ff9c91a7834c1ba4fdd244a5e8aa4e537bd38aeae4b073aa6113556113ce565b6040516113629190611725565b60405180910390a1565b6113746111b3565b60015f60146101000a81548160ff0219169083151502179055507f62e78cea01bee320cd4e420270b5ea74000d11b0c9f74754ebdbfc544b05a2586113b76113ce565b6040516113c49190611725565b60405180910390a1565b5f33905090565b6113dd611488565b15611414576040517f3ee5aeb500000000000000000000000000000000000000000000000000000000815260040160405180910390fd5b565b5f7f9b779b17422d0df92223018b32b4d1fa46e071723d6817e2486d003becc55f005f1b905090565b5f819050919050565b611450610888565b611486576040517f8dfc202b00000000000000000000000000000000000000000000000000000000815260040160405180910390fd5b565b5f600261149b611496611416565b61143f565b5f015414905090565b5f819050919050565b6114b6816114a4565b82525050565b5f6020820190506114cf5f8301846114ad565b92915050565b5f5ffd5b5f5ffd5b6114e6816114a4565b81146114f0575f5ffd5b50565b5f81359050611501816114dd565b92915050565b5f6020828403121561151c5761151b6114d5565b5b5f611529848285016114f3565b91505092915050565b7f4e487b71000000000000000000000000000000000000000000000000000000005f52602160045260245ffd5b600381106115705761156f611532565b5b50565b5f8190506115808261155f565b919050565b5f61158f82611573565b9050919050565b61159f81611585565b82525050565b5f6020820190506115b85f830184611596565b92915050565b5f8115159050919050565b6115d2816115be565b82525050565b5f6020820190506115eb5f8301846115c9565b92915050565b5f5ffd5b5f5ffd5b5f5ffd5b5f5f83601f840112611612576116116115f1565b5b8235905067ffffffffffffffff81111561162f5761162e6115f5565b5b60208301915083600182028301111561164b5761164a6115f9565b5b9250929050565b6004811061165e575f5ffd5b50565b5f8135905061166f81611652565b92915050565b5f5f5f5f6060858703121561168d5761168c6114d5565b5b5f85013567ffffffffffffffff8111156116aa576116a96114d9565b5b6116b6878288016115fd565b945094505060206116c9878288016114f3565b92505060406116da87828801611661565b91505092959194509250565b5f73ffffffffffffffffffffffffffffffffffffffff82169050919050565b5f61170f826116e6565b9050919050565b61171f81611705565b82525050565b5f6020820190506117385f830184611716565b92915050565b5f5f60408385031215611754576117536114d5565b5b5f611761858286016114f3565b9250506020611772858286016114f3565b9150509250929050565b61178581611705565b811461178f575f5ffd5b50565b5f813590506117a08161177c565b92915050565b5f5f5f604084860312156117bd576117bc6114d5565b5b5f6117ca86828701611792565b935050602084013567ffffffffffffffff8111156117eb576117ea6114d9565b5b6117f7868287016115fd565b92509250509250925092565b5f60208284031215611818576118176114d5565b5b5f61182584828501611792565b91505092915050565b7f4e487b71000000000000000000000000000000000000000000000000000000005f52601160045260245ffd5b5f611865826114a4565b91507fffffffffffffffffffffffffffffffffffffffffffffffffffffffffffffffff82036118975761189661182e565b5b600182019050919050565b5f6060820190506118b55f8301866114ad565b6118c26020830185611716565b6118cf60408301846115c9565b949350505050565b5f81519050919050565b7f4e487b71000000000000000000000000000000000000000000000000000000005f52604160045260245ffd5b7f4e487b71000000000000000000000000000000000000000000000000000000005f52602260045260245ffd5b5f600282049050600182168061195257607f821691505b6020821081036119655761196461190e565b5b50919050565b5f819050815f5260205f209050919050565b5f6020601f8301049050919050565b5f82821b905092915050565b5f600883026119c77fffffffffffffffffffffffffffffffffffffffffffffffffffffffffffffffff8261198c565b6119d1868361198c565b95508019841693508086168417925050509392505050565b5f819050919050565b5f611a0c611a07611a02846114a4565b6119e9565b6114a4565b9050919050565b5f819050919050565b611a25836119f2565b611a39611a3182611a13565b848454611998565b825550505050565b5f5f905090565b611a50611a41565b611a5b818484611a1c565b505050565b5b81811015611a7e57611a735f82611a48565b600181019050611a61565b5050565b601f821115611ac357611a948161196b565b611a9d8461197d565b81016020851015611aac578190505b611ac0611ab88561197d565b830182611a60565b50505b505050565b5f82821c905092915050565b5f611ae35f1984600802611ac8565b1980831691505092915050565b5f611afb8383611ad4565b9150826002028217905092915050565b611b14826118d7565b67ffffffffffffffff811115611b2d57611b2c6118e1565b5b611b37825461193b565b611b42828285611a82565b5f60209050601f831160018114611b73575f8415611b61578287015190505b611b6b8582611af0565b865550611bd2565b601f198416611b818661196b565b5f5b82811015611ba857848901518255600182019150602085019450602081019050611b83565b86831015611bc55784890151611bc1601f891682611ad4565b8355505b6001600288020188555050505b505050505050565b5f82825260208201905092915050565b828183375f83830152505050565b5f601f19601f8301169050919050565b5f611c138385611bda565b9350611c20838584611bea565b611c2983611bf8565b840190509392505050565b60048110611c4557611c44611532565b5b50565b5f819050611c5582611c34565b919050565b5f611c6482611c48565b9050919050565b611c7481611c5a565b82525050565b5f6060820190508181035f830152611c93818688611c08565b9050611ca260208301856114ad565b611caf6040830184611c6b565b95945050505050565b7f4d696e203120686f7572000000000000000000000000000000000000000000005f82015250565b5f611cec600a83611bda565b9150611cf782611cb8565b602082019050919050565b5f6020820190508181035f830152611d1981611ce0565b9050919050565b5f611d2a826114a4565b9150611d35836114a4565b9250828201905080821115611d4d57611d4c61182e565b5b92915050565b5f604082019050611d665f8301856114ad565b611d7360208301846114ad565b9392505050565b5f6020820190508181035f830152611d93818486611c08565b9050939250505056fea26469706673582212202958b76091c7867e8c9ad820e375046fed34a3ca87be017537f51d1c3f56a36e64736f6c634300081e0033","linkReferences":{}},"methodIdentifiers":{"announceWinner()":"2d8cd096","castVote(uint256)":"3eb76b9c","endTime()":"3197cbb6","getVoteCount(uint256)":"b2c2f2e8","getVotingStatus()":"581c281c","isCandidateRegistered(address)":"f1ecdc58","isTie()":"b1e25148","isVoterRegistered(address)":"eb2119db","nextCandidateId()":"d16ff4c8","owner()":"8da5cb5b","pauseVoting()":"f3cdcd1e","paused()":"5c975abb","registerCandidate(address,string)":"b0d30d2f","registerVoter(string,uint256,uint8)":"81ba732f","renounceOwnership()":"715018a6","resumeVoting()":"7afdf93e","setVotingPeriod(uint256,uint256)":"a15a36c7","startTime()":"78e97925","transferOwnership(address)":"f2fde38b","winner()":"dfbf53ae","winnerDeclared()":"ff2d4812","winningCandidateId()":"1eb85538"},"id":26}